:100000000C942F000C9400000C9400000C94000041
:100010000C9400000C9400000C9400000C94000060
:100020000C9400000C9400000C9400000C94000050
:100030000C9400000C9400000C9400000C94000040
:100040000C9400000C9400000C9400000C94000030
:040050000C9400000C
:10005E00BFE5BDBFB4E0BEBF0E947700B4B3B160D0
:10006E00B4BBB5B3BE7FB5BBB1B3BE7FB1BBB0E061
:10007E00B3BFB3B7B460B3BFB3B7BD7FB3BFB3B78E
:10008E00B160B3BFB4E1B2BFB5B3BE7FB5BBB0B361
:10009E00B0FD23C0B8B7B0FD01C0FCCFB8B7B1609A
:1000AE00B8BF009160001091610098012F5F3F4F23
:1000BE002093600030936100B4E1B2BF02E410E01F
:1000CE00201731074CF005B2B1E00B2605BAB0E0AF
:0E00DE00B0936000B0936100DACFD6CFFFCFB1
:0A00540005900D920197E1F7089561
:1000EE00A0E6B0E0ECEEF0E082E090E00E942A00A4
:0200FE00089563
:0200EC00000012
:00000001FF
