:100000000C942A000C9400000C9400000C94000046
:100010000C9400000C9400000C9400000C94000060
:100020000C9400000C9400000C9400000C94000050
:100030000C9400000C9400000C9400000C94000040
:100040000C9400000C9400000C9400000C94000030
:040050000C9400000C
:10005400BFE5BDBFB4E0BEBFB1B3BE7FB1BBB4B3F7
:10006400B062B4BBB0B3B0FD18C0B5B3B062B5BB39
:1000740029E216E900E80A95F1F71A95E1F72A95BD
:10008400D1F7B5B3BF7DB5BB29E216E900E80A95FF
:0E009400F1F71A95E1F72A95D1F7E4CFFFCFE7
:00000001FF
