:100000000C942A000C9400000C9400000C94000046
:100010000C9400000C9400000C9400000C94000060
:100020000C9400000C9400000C9400000C94000050
:100030000C9400000C9400000C9400000C94000040
:100040000C9400000C9400000C9400000C94000030
:040050000C9400000C
:10005400BFE5BDBFB4E0BEBFBFEFB7BBBFEFBABB28
:10006400BFEFB4BBBFEFB1BBB0E0B8BBB0E0BBBB4C
:10007400B0E0B5BBB0E0B2BB29E216E900E80A95EE
:10008400F1F71A95E1F72A95D1F7BFEFB8BBBFEFA7
:10009400BBBBBFEFB5BBBFEFB2BB29E216E900E8BB
:1000A4000A95F1F71A95E1F72A95D1F7DDCFFFCF3D
:0000B4004C
:00000001FF
