:100000000C942A000C9400000C9400000C94000046
:100010000C9400000C9400000C9400000C94000060
:100020000C9400000C9400000C9400000C94000050
:100030000C9400000C9400000C9400000C94000040
:100040000C9400000C9400000C9400000C94000030
:040050000C9400000C
:10005400BFE5BDBFB4E0BEBFB4B3B160B4BBB5B31C
:10006400B160B5BB22E51BE200E00A95F1F71A95F1
:10007400E1F72A95D1F70000000000000000B5B3B5
:10008400BE7FB5BB22E51BE200E00A95F1F71A95A5
:10009400E1F72A95D1F70000000000000000DFCF4F
:0200A400FFCF8C
:00000001FF
