:100000000C947D000C9400000C9400000C940000F3
:100010000C9400000C9400000C9400000C94000060
:100020000C9400000C9400000C9400000C94000050
:100030000C9400000C9400000C9400000C94000040
:100040000C9400000C9400000C9400000C94000030
:040050000C9400000C
:1000FA00BFE5BDBFB4E0BEBF0E94A900CDB7DEB761
:10010A002197CDBFDEBF21962F923F92B7E6B9B9AC
:10011A00B0E0B0BDABDFE5DF013071F4B0E0B88329
:10012A00E5DF0883B0E62B2EB0E03B2EC3DF288044
:0C013A008CDFBDE02B2E89DFEECFFFCF65
:0A00EC000BB0002707FC03950895F0
:0400F6000CB10895AC
:1000BE0010E0F1010081202F022F003079F03F92E5
:1000CE002F92202EC0DF2F903F90012F0F5F102F09
:0E00DE00E02FF0E0E20DF31D0081EFCF08955A
:10005400BBB1B5FD01C0FCCFBBB1B6FF03C0BBB1A2
:08006400B064BBB92CB808958B
:0A006C0005900D920197E1F7089549
:10007600BAE2B0936E00B0E0B0936F00BBE7B09306
:100086006C00B0E0B0936D00B6E7B0937200B0E0DC
:10009600B0937300BFEFB0937000BFEFB0937100E1
:1000A600B1B3BE7FB1BBB1B3B260B1BB0AB1086137
:0800B6000AB9B6E8B0BD0895D7
:10015200A0E6B0E0E6E4F1E08CE090E00E94360038
:020162000895FE
:0C014600596F752054797065643A2000F0
:00000001FF
