:100000000C946D160C9400000C9400000C940000ED
:100010000C9400000C9400000C9400000C94000060
:100020000C9400000C9400000C9400000C94000050
:100030000C9400000C9400000C9400000C94000040
:100040000C9400000C9400000C9400000C94000030
:040050000C9400000C
:102CDA00BFE5BDBFB4E0BEBF0E94FC172F923F9272
:102CEA004F925F926F927F928F929F92B7B3B86022
:102CFA00B7BBB0E0B093CB00B093CC00CEDDB7E663
:102D0A00B9B9B0E0B0BDC0DFBCE02B2E10DFB1E036
:102D1A002B2E0DDFD9DEB3DF10E0101788F4B4E0F4
:102D2A006B2EBBE94B2EB0E05B2EB6EC2B2EB0E03F
:102D3A003B2E5FDFB1E0B093CB00B0E0B093CC00A4
:102D4A000091CB001091CC00103009F4013009F049
:102D5A008CC0B6EC2B2EB0E03B2ED6DB20E030E068
:102D6A00021713070CF477C0B6EC2B2EB0E03B2EFB
:102D7A00CBDB24EB30E0201731070CF46CC0B6EC47
:102D8A002B2EB0E03B2EC0DB6624772488249924BE
:102D9A001801B0E017FDBFEF4B2E542CB0E0BF93E3
:102DAA00BF93B6E0BF93B3E9BF93B0E0BF93BF93BD
:102DBA00B3E0BF93B8E4BF93B0E0BF93BF93BF93B0
:102DCA00B4EBBF932ADDADB7BEB71C96ADBFBEBF8D
:102DDA0000936400109365002093660030936700A7
:102DEA00080100E21EE400191109090120E030E09F
:102DFA00200931090093600010936100209362005A
:102E0A003093630061DEB3E72B2EB0E03B2EEEDC9D
:102E1A00B6EC2B2EB0E03B2EE9DCB8E62B2EB0E068
:102E2A003B2EE4DCB8B3B860B8BB209064003090A5
:102E3A0065004090660050906700BBDCB8B3B77F6E
:102E4A00B8BB2090600030906100409062005090C2
:102E5A006300AFDC05C0BDE92B2EB0E03B2EC6DC1B
:102E6A00B0E0B093CB00B093CC0055CF9F908F9039
:0E2E7A007F906F905F904F903F902F90FFCF12
:1028A400B0913500BF7EB0933500B0913500BF7D47
:1028B400B0933500B0913500BE7FB0933500B09130
:1028C4003500BD7FB0933500B0913500BB7FB09328
:1028D4003500B0913500B77FB0933500B091340026
:1028E400B061B0933400B0913400B062B09334005E
:1028F400B0913400B860B0933400B0913400B46047
:10290400B0933400B0913400B260B0933400B0910D
:102914003400B160B093340047DF46DF45DFB09147
:102924003500B460B0933500B0913500B860B09311
:102934003500B0913500B061B093350030DFB0910F
:102944003500BF7EB09335002FDFB0913500B06104
:10295400B093350024DFB0913500BF7EB0933500CD
:1029640023DFB0913500B061B093350018DFB0912A
:102974003500BF7EB093350017DFB0913500B77FC7
:10298400B0933500B0913500B061B093350007DFE6
:10299400B0913500BF7EB093350006DFB0913500AD
:1029A400B061B0933500FBDEB0913500BF7EB093CB
:1029B4003500B0913500BB7FB0933500B091350040
:1029C400B160B0933500B0913500B061B09335007B
:1029D400E6DEB0913500BF7EB0933500E5DEB09100
:1029E4003500BE7FB0933500B0913500B860B09328
:1029F4003500B0913500B061B0933500D0DEB091B0
:102A04003500BF7EB0933500B0913500B77FB093E9
:102A14003500B0913500B061B0933500C0DEB0919F
:102A24003500BF7EB0933500BFDEB0913500B06194
:102A3400B0933500B4DEB0913500BF7EB09335005D
:102A4400B0913500B860B0933500B0913500B061F5
:102A5400B0933500A4DEB0913500BF7EB09335004D
:102A6400A3DEB0913500B77FB0933500B091350047
:102A7400B061B093350093DEB0913500BF7EB09362
:102A84003500B0913500B160B0933500B091350098
:102A9400B260B0933500B0913500B460B0933500A6
:102AA400B0913500B860B0933500B0913500B06195
:102AB400B093350074DEB0913500BF7EB09335001D
:0E2AC40073DEB091D500B160B093D5000895D7
:1027AC0013E708E40A95F1F71A95E1F7000008958C
:0027BC001D
:0A27A20005E00A95F1F70000089524
:102B380027FAB0913500B0F9B093350026FAB09174
:102B48003500B1F9B093350025FAB0913500B2F9E6
:102B5800B093350024FAB0913500B3F9B09335003D
:102B6800B091D50000903500E894B0FF689405F85E
:102B780000923500B0913500B061B09335000DDE9C
:102B8800B0913500BF7EB093350023FAB09135007F
:102B9800B0F9B093350022FAB0913500B1F9B0938D
:102BA800350021FAB0913500B2F9B093350020FA1A
:102BB800B0913500B3F9B0933500B091D5000090CD
:102BC8003500E894B0FF689405F800923500B0919C
:102BD8003500B061B0933500E0DDB0913500BF7EBF
:102BE800B0933500B091D500B0FF02C0DBDD01C065
:042BF8002ADD089535
:0E264E0012E009E00A95F1F71A95E1F70895F8
:102AD2002F923F924F925F92B1E02B2E2CD0B6EC08
:102AE2002B2EB0E03B2E14DD1F930F93BFE2BF935A
:102AF200B5EFBF93B0E0BF93B2ECBF93CCDDADB7FF
:102B0200BEB71696ADBFBEBFBAE84B2EB0E05B2E85
:102B1200B1E03B2EB1E02B2E52DDB2EC4B2EB0E0F9
:102B22005B2EB1E03B2EB2E02B2E49DD5F904F9041
:062B32003F902F90089572
:10269800CF93DF93CDB7DEB72297CDBFDEBF2196AC
:1026A8002F923F924F925F926F927F922E813F813D
:1026B800FE018E01085F1F4F0E5F1F4F019311939C
:1026C8008E013F932F9338014884598419010E9441
:1026D800DB042F913F91A801F801E20FF31FB0E04E
:1026E800B0838A017F906F905F904F903F902F90BA
:0C26F8002196CDBFDEBFDF91CF91089589
:1009B600CF93DF93CDB7DEB7A397CDBFDEBF21962A
:1009C600B0E0B98FBA8FF20182010F5F1F4F280185
:1009D60004910A87002311F40C9475120A850532D6
:1009E60071F00A85F101008381010F5F1F4F180125
:1009F600098D1A8D0F5F1F4F098F1A8FE4CFB0E054
:100A0600BB87BC87B0E0BD87BE8732C00D851E851B
:100A160008600D871E8782010F5F1F4F28013DC0AA
:100A26000D851E8501600D871E8782010F5F1F4F92
:100A3600280133C00D851E8502600D871E87820141
:100A46000F5F1F4F280129C00D851E8518600D8771
:100A56001E8782010F5F1F4F28011FC00D851E854F
:100A660004600D871E8782010F5F1F4F280115C086
:100A7600F20104910D3251F2F2010491003281F239
:100A8600F20104910B32B1F2F20104910332E1F268
:100A9600F2010491003311F301C0B7CF0D851E8515
:100AA60001FF05C00D851E850E7F0D871E870D85EE
:100AB6001E8503FF05C00D851E850B7F0D871E87CE
:100AC600F201049110E03F922F92202E2BDF2F90FF
:100AD6003F90002309F1B0E0BB87BC870B851C85DE
:100AE6004AE050E052DFF2012491020FB0E01B1FF2
:100AF600005310400B871C8782010F5F1F4F280190
:100B0600F801049110E03F922F92202E0BDF2F90D8
:100B16003F90002319F716C0F20104910A3291F4AE
:100B2600F30121913191F901019111910B871C87F4
:100B360089010E5F1F4FF3010193119382010F5F2D
:100B46001F4F2801F20104910E3209F03DC08201C7
:100B56000F5F1F4F2801F80104910A3299F4F3013F
:100B660021913191F9010191119108871987890124
:100B76000E5F1F4FF3010193119382010F5F1F4F09
:100B8600280121C0B0E0B887B987F201049110E0CE
:100B96003F922F92202EC6DE2F903F90002399F091
:100BA600088519854AE050E0F0DEF2012491020F33
:100BB600B0E01B1F005310400887198782010F5FA2
:100BC6001F4F2801E2CF08C0B0E0B887B9870D856E
:100BD6001E8510610D871E87F20182010F5F1F4F70
:100BE600280104910A87FEC0098D1A8D0C9477128C
:100BF6000D851E8500610D871E87EECF0D851E852E
:100C060014600D871E872FC10D851E8500620D8716
:100C16001E870D851E8511600D871E8724C10D85D3
:100C26001E8512600D871E871EC10D851E850064F8
:100C36000D871E8718C117C10D851E8500620D8799
:100C46001E870D851E8500680D871E870CC1F30162
:100C560001911191F801019111910D8B1E8BF301F8
:100C6600019111910E5F1F4FF301019311930D89AD
:100C76001E89103009F4003021F4BBEBBD8BB0E0C7
:100C8600BE8BB0E0BF8BB88F2D893E890F89188D3A
:100C9600F801E20FF31F0081002339F00F89188D48
:100CA6000F5F1F4F0F8B188FEFCF08851985B02F59
:100CB600B12B59F0288539850F89188D20173107F2
:100CC60020F4088519850F8B188F2B853C850F8995
:100CD600188D0217130748F40F88188C0B851C858E
:100CE600001911090B871C8703C0B0E0BB87BC87BE
:100CF6000D851E8503FD19C02B853C850B851C853E
:100D0600015010400B871C87B22FB32B71F0F101F5
:100D1600B0E2B08381010F5F1F4F1801098D1A8D54
:100D26000F5F1F4F098F1A8FE7CF2F89388D0F89D5
:100D3600188D015010400F8B188FB22FB32BB1F0C6
:100D4600ED89FE890081F101008381010F5F1F4F4C
:100D560018010D891E890F5F1F4F0D8B1E8B098D84
:100D66001A8D0F5F1F4F098F1A8FDFCF0D851E85D6
:100D760003FF19C02B853C850B851C85015010404F
:100D86000B871C87B22FB32B71F0F101B0E2B08351
:100D960081010F5F1F4F1801098D1A8D0F5F1F4FBD
:100DA600098F1A8FE7CF0FCEF30101911191F80148
:100DB60000810A87F301019111910E5F1F4FF30124
:100DC600019311938E01065F1F4F0D8B1E8BB1E0B1
:100DD600BF8BB0E0B88F69CF0D851E85006C0D877F
:100DE6001E8741C00A85003009F4FECE0A850C36FE
:100DF60009F4FECE0A850C3409F4FACE0A850636C5
:100E060009F4FCCE0A85053409F4FECE0A850536BA
:100E160009F4FFCE0A85073609F401CF0A850F3695
:100E260009F403CF0A85043609F405CF0A85093685
:100E360009F401CF0A85003709F4FECE0A85083584
:100E460009F4FACE0A85083709F4FBCE0A8503377A
:100E560009F4FDCE0A85033609F4A6CF0A850537BF
:100E660009F4BACFAFCF0D851E8500701770B02F6D
:100E7600B12B09F4C1C70D851E8514FF04C0B6E069
:100E8600B887B0E0B987F30101911191F80101919A
:100E96001191219131910F87188B298B3A8BF30190
:100EA600019111910C5F1F4FF301019311933F9232
:100EB6002F9240E050E060E070E00F8518892989A4
:100EC6003A895CDD002800E009F001E02F903F90B0
:100ED6000023A9F00F85188929893A89B0E00B27E4
:100EE600B0E01B27B0E02B27B0E83B270F87188B15
:100EF600298B3A8B0D851E8503600D871E87B0E012
:100F0600BB8BBC8B3F922F920F85188929893A8912
:100F160040E050E060E070E09BDA002800E009F075
:100F260001E02F903F90002309F48BC0AE014D5E87
:100F36005F4FFE013F960191119121913191B7E1E9
:100F46003695279517950795BA95D1F710700E57D0
:100F56001040FA01019311930B891C89015010402E
:100F66000B8B1C8B43E050E010DD0B8B1C8B7F92B0
:100F76006F925F924F923F922F924AE050E0ECD9E7
:100F86008B012F903F904F905F906F907F900B8BCF
:100F96001C8B20E030E00217130734F40B891C8900
:100FA600015010400B8B1C8B0B8800E000197F92C0
:100FB6006F925F924F923F922F92202E12DB2F90CC
:100FC6003F904F905F906F907F903F922F924F850A
:100FD600588969897A89EDD90D8B1E8B2F8B388FAD
:100FE60040E050E060E87FE30D891E892F89388D47
:100FF600C5DC002800E009F001E02F903F900023B7
:1010060039F00B891C89015010400B8B1C8B19C0C1
:101016003F922F9240E050E060E271E40D891E8914
:101026002F89388D1CDA002800E009F001E02F90A6
:101036003F90002331F00B891C890F5F1F4F0B8BEC
:101046001C8B2B893C8900E010E0021713071CF06B
:10105600B1E0BA8702C00B890A870D851E8510FD8F
:1010660015C00D851E8511FF10C02B893C890CEF1C
:101076001FEF2017310744F02B893C890885198515
:10108600201731070CF401C001C053C30885198528
:10109600B02FB12B51F00D851E8511FF06C00885B6
:1010A600198501501040088719872885398508E079
:1010B60010E00217130718F4B8E0BA8702C00885D3
:1010C6000A873F922F920F85188929893A8940E02D
:1010D60050E060E070E0BCD9002800E009F001E0D3
:1010E6002F903F90002309F4B8C07F926F925F92D1
:1010F6004F923F922F922B8874DAA801B9010F857F
:10110600188929893A899AD90F87188B298B3A8B9E
:101116000A8400E00019202E64DAA801B9010F85BF
:10112600188929893A898AD92F903F904F905F90E4
:101136006F907F900F87188B298B3A8B58D97BD964
:101146003F922F92A801B9010F85188929893A89FA
:1011560044D940E050E060E07FE381D90028B0E068
:1011660009F0B1E00B2F2F903F90002389F03F92BA
:101176002F920F85188929893A8940E050E060E06E
:101186007FE321D92F903F900F87188B298B3A8BBD
:101196000F85188929893A892AD94A8550E04F5FEF
:1011A6005F4FBA01660F771F660F771F4BE85FE246
:1011B600FB01E40FF51F4591559165917591041753
:1011C600150726073707C0F03F922F920F8518891B
:1011D60029893A894DEC5CEC6CEC7DE3EAD82F90DA
:1011E6003F900F87188B298B3A8B0B891C890F5FD1
:1011F6001F4F0B8B1C8B31C00F85188929893A89A3
:10120600F6D84A85642F70E0660F771F660F771F42
:101216004BE85FE2FB01E40FF51F4591559165919F
:1012260075910417150726073707B8F43F922F92D2
:101236000F85188929893A8940E050E060E271E417
:10124600B8D82F903F900F87188B298B3A8B0B8934
:101256001C89015010400B8B1C8B0D851E8511FFC0
:101266006FC00D851E8513FD6BC0288539850AE084
:1012760010E00217130724F4BAE0B887B0E0B98784
:101286000F85188929893A89B2D80D8B1E8B2F8B29
:10129600388F0D891E892F89388DB02FB12BB22B2F
:1012A600B32B49F14AE050E060E070E00D891E89F9
:1012B6002F89388D41DB8D019F01303029F4203094
:1012C60019F4103009F40030B1F40885198501507D
:1012D6001040088719874AE050E060E070E00D8909
:1012E6001E892F89388D28DB8B019C010D8B1E8B67
:1012F6002F8B388FCECF188529850A851017B0E039
:101306002B07F4F408840A8500197F926F925F9286
:101316004F923F922F92202E64D9A801B9010F85D2
:10132600188929893A898AD82F903F904F905F90E3
:101336006F907F900F87188B298B3A8B08850A87C9
:101346002885398589010B5F1F4F08010B851C8590
:10135600001911090B871C87B22FB32B29F40D85B1
:101366001E8513FD01C006C00B851C85015010406B
:101376000B871C870D851E8503701070B02FB12B4F
:1013860031F00B851C85015010400B871C870D859D
:101396001E8502FF48C00D851E8501FF17C00D85FD
:1013A6001E8500FF03C0BDE2B88302C0BBE2B8835E
:1013B6000881F101008381010F5F1F4F1801098D1C
:1013C6001A8D0F5F1F4F098F1A8F11C00D851E854D
:1013D60000FF0DC0F101B0E2B08381010F5F1F4F26
:1013E6001801098D1A8D0F5F1F4F098F1A8F2B85D4
:1013F6003C8500E010E002171307A4F4F101B0E306
:10140600B08381010F5F1F4F1801098D1A8D0F5F81
:101416001F4F098F1A8F0B851C85015010400B87B3
:101426001C87E5CF4BC00D851E8503FD1BC02B8594
:101436003C8500E010E002171307A4F4F101B0E2C6
:10144600B08381010F5F1F4F1801098D1A8D0F5F41
:101456001F4F098F1A8F0B851C85015010400B8773
:101466001C87E5CF0D851E8501FF17C00D851E85DE
:1014760000FF03C0BDE2B98302C0BBE2B9830981A4
:10148600F101008381010F5F1F4F1801098D1A8D2D
:101496000F5F1F4F098F1A8F11C00D851E8500FF24
:1014A6000DC0F101B0E2B08381010F5F1F4F18013B
:1014B600098D1A8D0F5F1F4F098F1A8F0F85188997
:1014C60029893A890E94FA010D8B1E8B2F8B388F42
:1014D6000A85202F30E0220F331F220F331F0BE81F
:1014E6001FE2F901E00FF11F459155916591759144
:1014F6000D891E892F89388D1FDA8B019C01005DAD
:10150600F101008381010F5F1F4F1801098D1A8DAC
:101516000F5F1F4F098F1A8F08851985B02FB12BC2
:1015260029F40D851E8513FD01C060C0F101BEE2E0
:10153600B08381010F5F1F4F1801098D1A8D0F5F50
:101546001F4F098F1A8F0A84B0E01B2E0885198554
:1015560000191109088719870A85002371F10A8580
:1015660001500A87202F30E0220F331F220F331F2E
:101576000BE81FE2F901E00FF11F459155916591C6
:1015860075910D891E892F89388DD6D98B019C01BD
:101596004AE050E060E070E0CFD98D019F01005D28
:1015A600F101008381010F5F1F4F1801098D1A8D0C
:1015B6000F5F1F4F098F1A8FCFCF08851985B02F60
:1015C600B12BA1F0F101B0E3B08381010F5F1F4F92
:1015D6001801098D1A8D0F5F1F4F098F1A8F088505
:1015E60019850150104008871987E7CF0D851E859C
:1015F60005FF0EC0F101B5E4B08381010F5F1F4FF7
:101606001801098D1A8D0F5F1F4F098F1A8F0DC094
:10161600F101B5E6B08381010F5F1F4F1801098DF7
:101626001A8D0F5F1F4F098F1A8F2B893C8900E097
:1016360010E020173107B4F40B881C8800E010E096
:10164600001911090B8B1C8BF101BDE2B0838101DE
:101656000F5F1F4F1801098D1A8D0F5F1F4F098FDE
:101666001A8F0DC0F101BBE2B08381010F5F1F4FDE
:101676001801098D1A8D0F5F1F4F098F1A8F7F92E0
:101686006F925F924F923F922F924AE050E00B8901
:101696001C890E94AF018B012F903F90005DF101E4
:1016A600008381010F5F1F4F1801098D1A8D0F5F8F
:1016B6001F4F098F1A8F3F922F924AE050E00B89F5
:1016C6001C890E94AF018C012F903F904F905F9034
:1016D6006F907F90005DF101008381010F5F1F4FC6
:1016E6001801098D1A8D0F5F1F4F098F1A8F0D85EF
:1016F6001E8503FF1DC02B853C8500E010E0021708
:101706001307B4F4F101B0E2B08381010F5F1F4FFC
:101716001801098D1A8D0F5F1F4F098F1A8F0B85C0
:101726001C85015010400B871C87B02FB12B51F739
:101736004AC90D851E8511FFB1C02B893C8900E081
:1017460010E0201731075CF40B891C89015010400A
:1017560008010885198500191109088719870F8559
:10176600188929893A890E94FA010D8B1E8B2F8BC5
:10177600388FB1E0BA870A850A30F1F00A85202F42
:1017860030E0220F331F220F331F0BE81FE2F9014F
:10179600E00FF11F45915591659175910D891E894F
:1017A6002F89388D041715072607370708F404C054
:1017B6000A850F5F0A87DFCF0A84B0E01B2E0885F3
:1017C600198500191109088719870D891E892F891E
:1017D600388D0E941E023F922F92A801B9010F85F3
:1017E600188929893A890E94F0012F903F900F8F1E
:1017F60018A329A33AA37F926F925F924F923F92CA
:101806002F9228840E94F4022F903F904F905F9071
:101816006F907F904F8D58A169A17AA13F922F9228
:101826000E94DC0140E050E060E07FE30E94E601B8
:101836002F903F900E94FA010D8B1E8B2F8B388FB5
:1018460008851985B02FB12B49F14AE050E060E0D8
:1018560070E00D891E892F89388D6ED88D019F0104
:10186600303029F4203019F4103009F40030B1F486
:101876004AE050E060E070E00D891E892F89388DBE
:101886005BD88B019C010D8B1E8B2F8B388F0885A7
:1018960019850150104008871987D2CF28853985C8
:1018A6000CE010E0021713078CF03F922F92288469
:1018B6000E9439024F85588969897A890E94E60112
:1018C6002F903F900F87188B298B3A8B3F922F9240
:1018D6000F85188929893A8940E050E060E070E078
:1018E6000E942B02002800E009F001E02F903F90B3
:1018F600002309F46EC00F85188929893A890E9448
:10190600FA01303029F4203019F4103009F400308F
:1019160009F05FC02B893C8901E010E0021713072C
:101926000CF057C07F926F925F924F923F922F9228
:101936002B880E94F402A801B9010F85188929890C
:101946003A890E9421022F903F904F905F906F90AE
:101956007F903F922F924FE550E769E870E40ED8EA
:101966000028B0E009F0B1E00B2F2F903F90002344
:1019760039F00B891C89095010400B8B1C8B06C053
:101986000B891C89085010400B8B1C8B7F926F9221
:101996005F924F923F922F922B880E94F402A801E9
:1019A600B9010F85188929893A890E9421022F9049
:1019B6003F904F905F906F907F900E94FA010D8B41
:1019C6001E8B2F8B388FB0E0BF87B88BB98BBA8B45
:1019D60023C00F85188929893A890E94FA010D8B3F
:1019E6001E8B2F8B388F0D891E892F89388D0E946B
:1019F6001E023F922F92A801B9010F8518892989E5
:101A06003A890E94F0012F903F900F87188B298BFF
:101A16003A8BB0E0BB8BBC8BB1E0BA870A850A3043
:101A2600F1F00A85202F30E0220F331F220F331FDB
:101A36000BE81FE2F901E00FF11F45915591659101
:101A460075910D891E892F89388D0417150726076C
:101A5600370708F404C00A850F5F0A87DFCF488579
:101A660059850A85202F30E0240F351F0B891C89E4
:101A7600020F131F08010B851C85001911090B871E
:101A86001C870D851E8513FD06C008851985B02F98
:101A9600B12B09F406C00B851C85015010400B873D
:101AA6001C870D851E8503701070B02FB12B31F089
:101AB6000B851C85015010400B871C870D851E85E4
:101AC60002FF48C00D851E8501FF17C00D851E85C6
:101AD60000FF03C0BDE2BA8302C0BBE2BA830A813B
:101AE600F101008381010F5F1F4F1801098D1A8DC7
:101AF6000F5F1F4F098F1A8F11C00D851E8500FFBE
:101B06000DC0F101B0E2B08381010F5F1F4F1801D4
:101B1600098D1A8D0F5F1F4F098F1A8F2B853C85F4
:101B260000E010E002171307A4F4F101B0E3B0835C
:101B360081010F5F1F4F1801098D1A8D0F5F1F4F0F
:101B4600098F1A8F0B851C85015010400B871C8747
:101B5600E5CF4BC00D851E8503FD1BC02B853C853F
:101B660000E010E002171307A4F4F101B0E2B0831D
:101B760081010F5F1F4F1801098D1A8D0F5F1F4FCF
:101B8600098F1A8F0B851C85015010400B871C8707
:101B9600E5CF0D851E8501FF17C00D851E8500FF4B
:101BA60003C0BDE2BB8302C0BBE2BB830B81F10174
:101BB600008381010F5F1F4F1801098D1A8D0F5F7A
:101BC6001F4F098F1A8F11C00D851E8500FF0DC08E
:101BD600F101B0E2B08381010F5F1F4F1801098D3B
:101BE6001A8D0F5F1F4F098F1A8F1A850A850150AC
:101BF6000A87112371F10A85202F30E0220F331F47
:101C0600220F331F0BE81FE2F901E00FF11F459188
:101C16005591659175910D891E892F89388D0E9480
:101C26009F048B019C014AE050E060E070E00E9456
:101C36009F048D019F01005DF101008381010F5F0B
:101C46001F4F1801098D1A8D0F5F1F4F098F1A8FAD
:101C5600CCCF2B893C8900E010E002171307A4F4CF
:101C6600F101B0E3B08381010F5F1F4F1801098DA9
:101C76001A8D0F5F1F4F098F1A8F0B891C89015010
:101C860010400B8B1C8BE5CF2885398508E010E0CA
:101C9600021713071CF4B8E0BA8702C008850A8742
:101CA6000A84B0E01B2E08851985001911090887DA
:101CB60019870A85002329F40D851E8513FD01C0A9
:101CC6000DC0F101BEE2B08381010F5F1F4F180105
:101CD600098D1A8D0F5F1F4F098F1A8F7F926F9292
:101CE6005F924F923F922F922A840E94F4022F9085
:101CF6003F904F905F906F907F903F922F924F85CD
:101D0600588969897A890E94DC012F903F900E9448
:101D1600FA010D8B1E8B2F8B388F0A85002381F1DC
:101D26000A8501500A87202F30E0220F331F220F29
:101D3600331F0BE81FE2F901E00FF11F45915591A2
:101D4600659175910D891E892F89388D0E949F0492
:101D56008B019C014AE050E060E070E00E949F0425
:101D66008D019F01005DF101008381010F5F1F4F0F
:101D76001801098D1A8D0F5F1F4F098F1A8FCDCF4E
:101D860008851985B02FB12BA1F0F101B0E3B0831E
:101D960081010F5F1F4F1801098D1A8D0F5F1F4FAD
:101DA600098F1A8F088519850150104008871987F1
:101DB600E7CF0D851E8503FF1DC02B853C8500E002
:101DC60010E002171307B4F4F101B0E2B083810109
:101DD6000F5F1F4F1801098D1A8D0F5F1F4F098F57
:101DE6001A8F0B851C85015010400B871C87B02F5E
:101DF600B12B51F70C94E6040D851E85007C1070FE
:101E0600103009F4003009F052C00D851E8504FF1C
:101E160015C0F30101911191F801019111912191E0
:101E260031910D8B1E8B2F8B388FF3010191119100
:101E36000C5F1F4FF3010193119316C0F30101913B
:101E46001191F8010191119120E017FD2FEF322F2A
:101E56000D8B1E8B2F8B388FF301019111910E5F25
:101E66001F4FF301019311934D895E896F89788D18
:101E760000E010E020E030E04017510762077307EA
:101E8600ACF40D851E8503600D871E870D881E88A0
:101E960000E010E0001911090F88188C20E030E0EE
:101EA600200931090D8B1E8B2F8B388F2CC00D8589
:101EB6001E8504FF15C0F30101911191F8010191EE
:101EC6001191219131910D8B1E8B2F8B388FF30140
:101ED600019111910C5F1F4FF3010193119313C0F0
:101EE600F30101911191F801019111910D8B1E8B56
:101EF600B0E0BF8BB88FF301019111910E5F1F4FB8
:101F0600F3010193119308851985103009F4003007
:101F160091F40D891E892F89388D303029F42030AF
:101F260019F4103009F4003031F4088519850F5F73
:101F36001F4F088719870D85007C802F6CC0B1E084
:101F4600BA870A850A30F1F00A85202F30E0220F81
:101F5600331F220F331F0BE81FE2F901E00FF11FB9
:101F660045915591659175910D891E892F89388DF9
:101F7600041715072607370708F404C00A850F5FFC
:101F86000A87DFCF53C0B1E0BA870A850830F1F07F
:101F96000A85202F30E0220F331F220F331F03EB59
:101FA6001FE2F901E00FF11F459155916591759179
:101FB6000D891E892F89388D0417150726073707BF
:101FC60008F404C00A850F5F0A87DFCF2FC0B1E08F
:101FD600BA870A850C30F1F00A85202F30E0220FEF
:101FE600331F220F331F0BE51FE2F901E00FF11F2C
:101FF60045915591659175910D891E892F89388D69
:10200600041715072607370708F404C00A850F5F6B
:102016000A87DFCF0BC0803009F491CF803C09F4EA
:102026008ECF803809F4AFCF803489F20A852885AF
:10203600398510E0021713071CF408850A870BC0C0
:10204600188529850A851017B0E02B0724F40A8520
:102056000887B0E0B9870B851C85B02FB12B69F0D6
:102066000D851E8503701070B02FB12B31F00B85D6
:102076001C85015010400B871C872B853C850885E5
:102086001985021713074CF4088419840B851C85DF
:10209600001911090B871C8703C0B0E0BB87BC87FA
:1020A6000D851E85047C1870183009F4003461F41F
:1020B6000B851C85B02FB12B31F00B851C8501508B
:1020C60010400B871C8719C00D851E85007C187073
:1020D600183009F4003889F42B853C8502E010E0BD
:1020E600021713073CF40B851C85025010400B8722
:1020F6001C8703C0B0E0BB87BC870D851E8502FF29
:1021060074C00D851E8501FF17C00D851E8500FF55
:1021160003C0BDE2BC8302C0BBE2BC830C81F101FB
:10212600008381010F5F1F4F1801098D1A8D0F5F04
:102136001F4F098F1A8F3DC00D851E8500FF0EC0EB
:10214600F101B0E2B08381010F5F1F4F1801098DC5
:102156001A8D0F5F1F4F098F1A8F2BC00D851E8595
:10216600007C1870183009F4003819F5F101B0E355
:10217600B08381010F5F1F4F1801098D1A8D0F5F04
:102186001F4F098F1A8F0D851E8505FF03C0B8E501
:10219600BD8302C0B8E7BD830D81F10100838101D3
:1021A6000F5F1F4F1801098D1A8D0F5F1F4F098F83
:1021B6001A8F0B851C85B02FB12BB1F0F101B0E35E
:1021C600B08381010F5F1F4F1801098D1A8D0F5FB4
:1021D6001F4F098F1A8F0B851C85015010400B87E6
:1021E6001C87B02FB12B51F78CC00B851C85B02FE7
:1021F600B12BD1F00D851E8503FD16C0F101B0E2AD
:10220600B08381010F5F1F4F1801098D1A8D0F5F73
:102216001F4F098F1A8F0B851C85015010400B87A5
:102226001C87B02FB12B51F70D851E8501FF17C0F6
:102236000D851E8500FF03C0BDE2BE8302C0BBE262
:10224600BE830E81F101008381010F5F1F4F1801CC
:10225600098D1A8D0F5F1F4F098F1A8F11C00D85BB
:102266001E8500FF0DC0F101B0E2B08381010F5F52
:102276001F4F1801098D1A8D0F5F1F4F098F1A8F77
:102286000D851E85007C1870183009F4003471F431
:10229600F101B0E3B08381010F5F1F4F1801098D73
:1022A6001A8D0F5F1F4F098F1A8F2BC00D851E8544
:1022B600007C1870183009F4003819F5F101B0E304
:1022C600B08381010F5F1F4F1801098D1A8D0F5FB3
:1022D6001F4F098F1A8F0D851E8505FF03C0B8E5B0
:1022E600BF8302C0B8E7BF830F81F101008381017C
:1022F6000F5F1F4F1801098D1A8D0F5F1F4F098F32
:102306001A8F288539850A8510E00217130774F499
:10231600F101B0E3B08381010F5F1F4F1801098DF2
:102326001A8D0F5F1F4F098F1A8FEBCF28853985BE
:10233600088519850150104008871987B22FB32BDD
:1023460009F4ADC00D85007C0F8F8FC008851985F7
:102356009801220F331F220F331F0BE81FE2F901EA
:10236600E00FF11F45915591659175910D891E8973
:102376002F89388D0E949F048B019C014AE050E012
:1023860060E070E00E949F048D019F01005D0A8756
:1023960078C00D851E8505FF26C00885198598011C
:1023A600220F331F220F331F03EB1FE2F901E00F49
:1023B600F11F45915591659175910D891E892F895A
:1023C600388D0E949F048B019C01A801B9014F70B2
:1023D60050706070707003ED1FE2F801E40FF51F96
:1023E60004910A8725C0088519859801220F331F95
:1023F600220F331F03EB1FE2F901E00FF11F459196
:102406005591659175910D891E892F89388D0E9488
:102416009F048B019C01A801B9014F705070607038
:10242600707004EE1FE2F801E40FF51F04910A87AD
:1024360028C0088519859801220F331F220F331FE4
:102446000BE51FE2F901E00FF11F459155916591EA
:1024560075910D891E892F89388D0E949F048B01E5
:102466009C010770005D0A870CC00F8D003009F4CF
:102476006DCF003C09F46ACF003809F48ACF0034E6
:10248600C1F20A85F101008381010F5F1F4F180118
:10249600098D1A8D0F5F1F4F098F1A8F47CF0D8534
:1024A6001E8503FF1DC02B853C8500E010E002174A
:1024B6001307B4F4F101B0E2B08381010F5F1F4F3F
:1024C6001801098D1A8D0F5F1F4F098F1A8F0B8503
:1024D6001C85015010400B871C87B02FB12B51F77C
:1024E6000C94E604098D1A8DA296CDBFDEBFDF914E
:0424F600CF910895E5
:10092A0009E3021528F0B0E32B1610F001E001C02C
:04093A0000E008953C
:1005E800CF93DF93CDB7DEB72497CDBFDEBF21967B
:1005F800B0E02B160CF0C9C000E00219202E0E3610
:100608000CF46DC02F9244E650E0022D10E027FC58
:100618001FEFA1DE062F2F9010E007FD1FEF0E5EE3
:100628001F4F9801220F331F220F331F07E21FE2CB
:10063800F901E00FF11F0591159125913591088376
:1006480019832A833B832F9244E650E0022D10E061
:1006580027FC1FEF80DE082F10E007FD1FEF4AE0A0
:1006680050E079DE062F10E007FD1FEF075F1F4FF0
:100678009801220F331F220F331F07E21FE2F901EF
:10068800E00FF11F45915591659175910881198188
:100698002A813B818DDE2F90088319832A833B832F
:1006A8004AE050E0022D10E027FC1FEF54DE082F2F
:1006B800202F30E007FD3FEF220F331F220F331F9B
:1006C80007E21FE2F901E00FF11F4591559165918D
:1006D8007591088119812A813B816ADE1CC10AE073
:1006E80002150CF040C02F924AE050E0022D10E0B5
:1006F80027FC1FEF30DE062F2F9010E007FD1FEFBD
:10070800075F1F4F9801220F331F220F331F07E285
:100718001FE2F901E00FF11F05911591259135911F
:10072800088319832A833B834AE050E0022D10E0B6
:1007380027FC1FEF10DE082F202F30E007FD3FEFCA
:10074800220F331F220F331F07E21FE2F901E00FC8
:10075800F11F4591559165917591088119812A81FB
:100768003B8126DED8C0222D30E027FC3FEF220F48
:10077800331F220F331F07E21FE2F901E00FF11FB9
:100788000591159125913591C6C0BEE62B160CF43E
:100798006DC02F9244E650E0022D10E027FC1FEFB9
:1007A800DADD062F2F9010E007FD1FEF0E5E1F4FBA
:1007B8009801220F331F220F331F03EF1EE2F901A6
:1007C800E00FF11F05911591259135910883198343
:1007D8002A833B832F9244E650E0022D10E027FC49
:1007E8001FEFB9DD082F10E007FD1FEF4AE050E0CA
:1007F800B2DD062F10E007FD1FEF075F1F4F9801BE
:10080800220F331F220F331F03EF1EE2F901E00FFF
:10081800F11F4591559165917591088119812A813A
:100828003B81C6DD2F90088319832A833B834AE0E6
:1008380050E0022D10E027FC1FEF8DDD082F202F40
:1008480030E007FD3FEF220F331F220F331F03EF66
:100858001EE2F901E00FF11F4591559165917591DF
:10086800088119812A813B81A3DD55C00AE0021560
:100878000CF040C02F924AE050E0022D10E027FC17
:100888001FEF69DD062F2F9010E007FD1FEF075FB0
:100898001F4F9801220F331F220F331F03EF1EE251
:1008A800F901E00FF11F0591159125913591088304
:1008B80019832A833B834AE050E0022D10E027FC8D
:1008C8001FEF49DD082F202F30E007FD3FEF220FF3
:1008D800331F220F331F03EF1EE2F901E00FF11F50
:1008E8004591559165917591088119812A813B81BE
:1008F8005FDD11C0222D30E027FC3FEF220F331FB0
:10090800220F331F03EF1EE2F901E00FF11F0591DB
:100918001591259135912396CDBFDEBFDF91CF91FB
:02092800089530
:10035E00C801BA0197FB092E07260AD077FD04D0F3
:10036E000CD006D000201AF4709561957F4F089539
:10037E00F6F7909581959F4F0895AA1BBB1B51E1EF
:10038E0007C0AA1FBB1FA617B70710F0A61BB70BF7
:10039E00881F991F5A95A9F780959095BC01CD019C
:0403AE000895089511
:1003B800042E152E262E372E0CDF002E112E222E5F
:0403C800332E089533
:1001DA00B9DF81F1E62ED52EC42EB32EA22E912E92
:1001EA00802E002D112D222D332DACDF19F16E2515
:1001FA004C0D5D1D40385307F4F441387FEF570723
:10020A00FCF088279927AA27BB2770E2B695A795FD
:10021A0097958795379527951795079520F4880D13
:10022A00991DAA1DBB1D7A9589F7032F3A2F292FED
:10023A00182F9DDF0AC00FEF102F2FE73FE7FACFE5
:0C024A000027102F202F302FF5CF089533
:10014E009CDF79F0632F6078220F331F432F5FE718
:10015E00451B55275040269530E8232B332798947E
:0A016E0003C04427552766270895B3
:10008800002329F4112319F4222309F433230895B2
:0000980068
:1001780087DF11F19F938F938EE790E0332351F03F
:10018800369527951795079548175907B4F44F5F83
:100198005F4FF4CF80959095019622239AF0000F37
:1001A800111F221F481759071CF041505040F5CF26
:1001B800002711272227332708C033270FEF102FD6
:0C01C8002FE7322F8F919F9151DF089597
:1000740009D039F041585F4F342F220F3695279518
:04008400362B08957A
:10047200CF93DF93CDB7DEB72497CDBFDEBF2196F2
:10048200BEE62B1608F45AC044E6022D4ADF10E0FD
:100492000E5E1F4F9801220F331F220F331F07E2F8
:1004A2001FE2F901E00FF11F059115912591359198
:1004B2002F9240E050E060E07FE37DDF2F900883E1
:1004C20019832A833B8344E6022D2BDF092F4AE05E
:1004D20028DF10E0075F1F4F9801220F331F220F02
:1004E200331F07E21FE2F901E00FF11F4591559119
:1004F20065917591088119812A813B812F925BDF79
:100502002F90088319832A833B834AE0022D09DF57
:10051200092F202F30E0220F331F220F331F07E253
:100522001FE2F901E00FF11F459155916591759117
:10053200088119812A813B813EDF4FC00AE0021502
:10054200C0F54AE0022DEDDE10E0075F1F4F980173
:10055200220F331F220F331F07E21FE2F901E00FC0
:10056200F11F05911591259135912F9240E050E0B0
:1005720060E07FE320DF2F90088319832A833B8387
:100582004AE0022DCEDE092F202F30E0220F331F4A
:10059200220F331F07E21FE2F901E00FF11F45911D
:1005A200559165917591088119812A813B8103DFFB
:1005B20014C0222D30E0220F331F220F331F07E217
:1005C2001FE2F901E00FF11F059115912591359177
:1005D20040E050E060E07FE3EEDE2396CDBFDEBF79
:0605E200DF91CF910895A6
:10032400992779E004C0991F941708F0941B001FC3
:080334007A95C9F700950895C0
:100990002227002400FF02C0040E251F440F551F0C
:1009A0004115510529F0169507951050004091F713
:0609B000122F002D089536
:0E098200E6DC1CF40024039401C00024089558
:0E035000042E152E262E372E7EDF0023089554
:10025600BEDF332332F015DF11F001E003C00027C3
:0602660001C00FEF089536
:0601D400689460DF08954D
:10009800E6DF09F441C0E62ED52EC42EB32EA22EDB
:1000A800912E802E002D112D222D332DD8DF09F40D
:1000B8003DC0842F952F8C199D09B9F072F4909545
:1000C800809501964C2D5D2D883180F535952795C5
:1000D800179507950197D1F708C08831E8F4B594CA
:1000E800A794979487940197D1F766272EF0080D67
:1000F800191D2A1D3B1D09C0801A910AA20AB30ABC
:10010800082D192D2A2D3B2D332312F49FDF60E88B
:100118002FD001C0ABDF16C0002D112D222D332D9D
:10012800D6F7AEDFC1F340E83427F5CF082D192DF7
:100138002A2D3B2D4C2D5D2D6E2D33235AF786DF4E
:0601480060E8E8CF089515
:0E00660073D021F0662309F0F2DF989408951C
:1000540000951095209530950F5F1F4F2F4F3F4F00
:020064000895FD
:0E0456007CDF19F00024039401C000240895F7
:0E04640075DF1CF00024039401C000240895ED
:10044200042E152E262E372E10DF002E112E222ED0
:04045200332E0895A8
:10026C003F932F931F930F93002D112D222D332D80
:10027C0068DF09F44BC0E62ED52EC42EB32EA22E69
:10028C00912E802E0F911F912F913F915ADF61F18A
:10029C006E254C195D09403853073CF541387FEF0A
:1002AC0057077CF180E27724632E522E412E302F9B
:1002BC00222711270027000F111F221F331F441C58
:1002CC00551C661C771C28F0481859086A087B08CE
:1002DC0004C0480C591C6A1C7B1C0AF001608A95EE
:1002EC0051F74150504042DF16C00FEF102F2FE74F
:1002FC003FE76623C9F3C2DEB9F3342D30E8342569
:10030C00F3CF0027102F202F302FEECF0F900F9010
:08031C000F900F90EACF089545
:1003F400ACDEF1F05523C2F04F31A8F44731C1F01F
:1004040050F44195495E05C0359527951795079594
:100414004A95D1F70DC04751000F111F221F331FFA
:100424004A95D1F705C03FE7232F132F032F03C0AD
:08043400662309F00DDE0895B6
:06043C0068947EDF0895C4
:10033C0047E16627552726F0332312F485DE60E863
:04034C0015DF08951C
:1003E000042E152E262E372EF5DE002E112E222E4F
:0403F000332E08950B
:1003CC00042E152E262E372EEEDF002E112E222E69
:0403DC00332E08951F
:0603B200E89471DE0895DD
:10093E00C9019A01AB01B801A1E21A2EAA1BBB1B79
:10094E00FD010DC0AA1FBB1FEE1FFF1FA217B3078D
:10095E00E407F50720F0A20BB30BE40BF50B661FB3
:10096E00771F881F991F1A9469F760957095809567
:04097E0090950895B3
:10251200F1010081402F50E0503009F4403229F09F
:10252200503009F4493009F005C081010F5F1F4F97
:102532001801EECF20E030E060E070E0503009F4A6
:102542004D3249F48B010F5F1F4FA80181010F5FCC
:102552001F4F180109C0503009F44B3221F4810198
:102562000F5F1F4F1801AB01F1010081602F70E076
:102572003F922F92262E0E9495042F903F90002387
:10258200A1F05F934F9389014AE050E00E94C80492
:102592004F915F919B0120533040020F131F98010E
:1025A20081010F5F1F4F1801DFCFB42FB52B29F028
:0E25B20000E010E0021B130B01C08901089528
:1025C0002F920FC0B0E82B2E19C0B0EC2B2E16C0E6
:1025D000B4E92B2E13C0B4ED2B2E10C0B0E82B2E77
:1025E0000DC0B1E02B1671F3B2E02B1671F3B3E01E
:1025F0002B1671F3B4E02B1671F3F0CF032D0150BD
:10260000020D202E202E98D2B091D500BE7FB0931F
:10261000D50010E0E12FF0E0E40DF51D008100236E
:1026200079F0E12FF0E0E40DF51D00811F932F926A
:10263000202E63DF2F901F91012F0F5F102FEACF05
:0E264000B091D500B160B093D5002F900895F1
:1024FA00B091D500BE7FB093D50019D3B091D50065
:08250A00B160B093D500089503
:0A2C88000BB0002707FC0395089528
:102BFC0020E000E0302F662009F43CC0BFEF6B16DC
:102C0C0019F0062D0150602E39D0003009F4FCCF9C
:102C1C0073DD102FE22FF0E0E20DF31D0083022F85
:102C2C000F5F202FE32FF0E0E40DF51D008101175D
:102C3C0021F4032F0F5F302F0AC030E0F201008126
:102C4C00011729F4032F0F5F102F312F00C0E32F32
:102C5C00F0E0E40DF51D0081003059F4022F10E076
:102C6C00031BB0E01B0BF801E20DF31DB0E0B083C9
:0C2C7C0004C0C1CFF101B0E0B0830895A6
:042704000CB1089577
:10282400CF93DF93CDB7DEB72596A880B980CA8051
:10283400DB800C811D812E813F810C831D832E83BF
:102844003F83088519852A853B85088719872A8748
:102854003B87A101B20146195709680979090C801F
:102864001D8008851985001911090E801F802A858D
:102874003B8520093109F0DEA501B6014619570947
:10288400680979094BDF89019A014C815D816E8168
:102894007F81040F151F261F371FDF91CF910895E5
:0028A40034
:10265C00049FD001159FF001249FE00DF11D069FF2
:10266C00E00DF11D349FF00D259FF00D169FF00D20
:10267C00079FF00D3327149FB00DE11DF31F059F2D
:0C268C00B00DE11DF31F8D019F010895AA
:10272000C9019A01AB01B80197FB092E05260ED00D
:1027300057FD04D014D00AD0001C38F450954095B1
:10274000309521953F4F4F4F5F4F0895F6F7909585
:102750008095709561957F4F8F4F9F4F0895A1E2AF
:102760001A2EAA1BBB1BFD010DC0AA1FBB1FEE1F0B
:10277000FF1FA217B307E407F50720F0A21BB30B56
:10278000E40BF50B661F771F881F991F1A9469F7D2
:1027900060957095809590959B01AC01BD01CF012E
:0227A00008959A
:1027F60010E0F1010081202F022F003079F03F9286
:102806002F92202E7EDF2F903F90012F0F5F102FEB
:0E281600E02FF0E0E20DF31D0081EFCF0895FA
:10270800BBB1B5FD01C0FCCFBBB1B6FF03C0BBB1C7
:08271800B064BBB92CB80895B0
:1027BC0040E050E060E070E042155305640575059B
:1027CC0074F40AE10A95F1F7000000008A019B01FC
:1027DC000B5F1F4F2F4F3F4FA801B901EDCF08954D
:0027EC00ED
:0A27EC0005900D920197E1F70895A2
:102C9200B4E8B093CF00B3E1B093D000B2E8B09300
:102CA200CD00B3E1B093CE00B4E4B093D300B6E16B
:102CB200B093D400BFEFB093D100BFEFB093D20076
:102CC200B1B3BE7FB1BBB1B3B260B1BB0AB10861EF
:082CD2000AB9B6E8B0BD08958F
:102FF800A0E6B0E0E8E8FEE28BE690E00E94F61377
:02300800089529
:032FF5002575003F
:102F8B00010000000A00000064000000E8030000DC
:102F9B0010270000A086010040420F008096980089
:082FAB0000E1F50500CA9A3BA4
:102FB30001000000100000000001000000100000EC
:102FC30000000100000010000000000100000010DC
:102F5B00010000000800000040000000000200001B
:102F6B0000100000008000000000040000002000A2
:102F7B0000000001000000080000004000000000FD
:102FD300303132333435363738394142434445464C
:012FE30000ED
:102FE400303132333435363738396162636465667B
:012FF40000DC
:102F27000000803FCDCCCC3D0AD7233C6F12833ABB
:102F370017B7D138ACC52737BD37863595BFD633D8
:102F470077CC2B325F708930FFE6DB2E08E53C1E1D
:042F57006042A20D25
:102EF3000000803F000020410000C84200007A44E7
:102F030000401C460050C347002474498096184B68
:102F130020BCBE4C286B6E4EF9021550EC78AD60A8
:042F2300CAF2497134
:042E88000000000046
:042E8C000000000042
:0B2E900020446567726565730A0D0041
:102E9B000A0D536572766F20416E676C6520536522
:072EAB007420546F3A20006F
:102EB200536572766F416E676C6553657420746FEB
:012EC200000F
:022EC3002300EA
:102EC5000D0A496E76616C696420536576726F20D0
:0E2ED500416E676C652056616C75650D0A00D4
:072EE300286E756C6C2900DC
:042EEA0000000000E4
:052EEE000000000000DF
:00000001FF
